:020000040800F2
:10000000004B002035710008ED000008EF000008EB
:10001000F1000008F3000008F500000800000000EF
:10002000000000000000000000000000F7000008D1
:10003000F7000008F70000087B5F00086F60000809
:10004000C11C0008C51C0008C91C0008CD1C000804
:10005000D11C0008D51C0008D91C0008DD1C0008B4
:10006000E11C0008E51C0008E91C0008ED1C000864
:10007000F11C0008F51C0008F91C0008FD1C000814
:10008000011D0008051D0008091D00080D1D0008C0
:10009000111D0008151D0008191D00081D1D000870
:1000A000211D0008251D0008291D00082D1D000820
:1000B000311D0008351D0008391D00083D1D0008D0
:1000C000411D0008451D0008491D00084D1D000880
:1000D000511D0008551D0008591D00085D1D000830
:1000E000611D0008651D0008691D0008FEE7FEE7A8
:1000F000FEE7FEE7FEE7FEE7DFF80CD007F008F8C2
:1001000000480047A7070008004B002000250124F5
:10011000FE4F012000F0E4FB0646012E08D13DB958
:10012000022C0DD0601CC4B22146B86805F06DF8F1
:100130003546002214231146104605F059FEE8E723
:100140000124F1E770B4002401234FF0000C521E8B
:10015000002A08DD03EB83035B000CF1010C0CF0BB
:10016000FF0C9445F6DB002B12D0E94E4FF0300C1B
:100170002025B1FBF3F26CB130320270401CB1FBB0
:10018000F3F203FB1211A6FB0332D308002BF0D1CC
:1001900070BC70471AB1012430320270EEE7012BB7
:1001A00001D00570EAE780F800C0E7E710B5D9A1F3
:1001B000DE4805F08CFFDEA1E34805F088FFE3A1EF
:1001C000E84805F084FFE8A1ED4805F080FF04F061
:1001D000F8F9EC49A1FB0021E94A490901F1300392
:1001E00093736FF018035943C94C00EB8101A4FBD2
:1001F0000131C90830311174A4FB0031C9084942EA
:1002000001EB810100EB410030305074DEA102F1BE
:10021000150005F05CFF4FF47A710422E048FFF707
:1002200091FFE0A1E54805F052FFE5480078A4FB06
:100230000021E24AC90801F130031373494201EB7E
:10024000810100EB410030305073DEA102F1150056
:1002500005F03DFF00F033FBE049B0FBF1F0A4FBFB
:100260000021DF4BC90801F130021A73494201EB4A
:10027000810100EB410030305873DAA103F1150021
:1002800005F025FFDD4801680822DD48FFF75AFF29
:10029000DCA1E24805F01BFFE14801680822E148C3
:1002A000FFF750FFA9A1E04805F011FF1F2001F062
:1002B0002DF89E49002001F02BF9A349182001F0E8
:1002C00027F9002001F022F8A649302001F020F99A
:1002D000AB49482001F01CF9D449602001F018F91D
:1002E000B649782001F014F9BD49902001F010F9C9
:1002F000CF49A82001F00CF9BDE81040C749C02043
:1003000001F006B92DE9F041CA4D002481A18748CA
:1003100005F0DDFE86A18C4805F0D9FEC6A1914806
:1003200005F0D5FE7A4F202695F83210072C13D20F
:10033000DFE804F00406080A0C0E100090480CE0F8
:10034000BA480AE09D4808E0A54806E0B84804E03D
:10035000B24802E0B44800E00020E8B10670467000
:100360008670CD224A43D20A3032C270A7FB0132D6
:10037000D208524202EB820201EB4201303101719C
:1003800046710E2205F14C01801D05F0BAFEAD69E3
:10039000601CC4B2002DC7D1062C03D26BA1A248A9
:1003A00005F095FE052C03D268A19C4805F08FFE50
:1003B000042C03D265A19E4805F089FE032C03D2CC
:1003C00062A1874805F083FE1F2000F09FFF574978
:1003D000002001F09DF85C49182001F099F84FF4D5
:1003E000784000F093FF5F49302001F091F8002041
:1003F00000F08CFF6249482001F08AF88B496020A8
:1004000001F086F86D49782001F082F87449902057
:1004100001F07EF88649A82001F07AF87F49C020D3
:1004200001F076F8BDE8F0417F49D82001F070B8BE
:1004300082B0FFF7BBFE002301221946184605F0E3
:10044000D7FC01240125314E01AA6421B06804F0D3
:100450003DFE9DF8041001B90446AC4204D04FF6AD
:10046000FF7001F031F82546022C02D0FFF79EFE06
:10047000EAE7FFF747FFE7E730B587B0744801AA1E
:10048000032500244FF4807133C20D210B4600F583
:100490007F72009121466F4805F0DDF9069006AAAB
:1004A0006DA10D2005F038FB6E4801AA802133C2F2
:1004B0000C210B4600F5FE72009100216A4805F000
:1004C000CAF9069006AA69A10C2005F025FB07B021
:1004D00030BD08B5002004F06FFD0C4988606A4605
:1004E00065A103F0CDFC08BD2DE9F05F074C206B42
:1004F000401C2063012000F0F3F9207000F011FA95
:10050000C0F300116171C0F34001BDE000000020A4
:10051000CDCCCCCC20204D69637269756D207543BC
:100520002F4F532D4949202000000000C40800200F
:1005300053542053544D33322028436F72746578DE
:100540002D4D332900000000D90800202020202054
:10055000202020202020202020202020202020209B
:1005600000000000EE080020202075432F4F532D7F
:1005700049493A202056782E797920200000000041
:10058000030900201F85EB5120205469636B5261E1
:1005900074653A20202078787878202000000000C8
:1005A0002609002020204350552055736167653A85
:1005B0007878202520202020000000002D09002030
:1005C0004400002020204350552053706565643A54
:1005D0007878204D487A20200000000040420F002B
:1005E000420900202020235469636B733A207878F5
:1005F0007878787878782020000000007800002053
:100600006109002020202343747853773A207878BA
:100610007878787878782020000000006C09002035
:1006200050000020760900208109002018090020D0
:10063000570900200010002020205072696F2020F0
:10064000205461736B6E616D6520202000000000F6
:10065000C4020020310400085573657220492F46FA
:1006600000000000C40600200D0100084B657962FF
:100670006F61726400000000557365722049462066
:100680004D626F78000000002171C0F3800161703D
:10069000C0F3C001A17000F00100E0705748056888
:1006A00057480668574807685748D0F800805748A9
:1006B000D0F80090E06A281AB0F57A7F39D306F0B6
:1006C000EBFC8346E069301A06F0E6FC594606F07A
:1006D000A5FCDFF83CA1514606F06EFCE060206A04
:1006E000381A06F0D9FC594606F098FC514606F037
:1006F00063FC2061606AA8EB000006F0CDFC59465F
:1007000006F08CFC514606F057FC6061A06AA9EB2C
:10071000000006F0C1FC594606F080FC514606F088
:100720004BFCA061E562E6612762C4F82480C4F84E
:100730002890BDE8F09F10B505F0FEFF354805F0A4
:10074000F5FFFA2005F0F5FF06F04AF84FF4E13026
:1007500006F004FBBDE8104006F0A0BA00F07AF8FD
:1007600005F094FC03F0B8FEFFF7E5FFFFF7B1FEDC
:10077000FFF782FE032000F0FFF8042000F0FCF8F1
:10078000002264231146104605F032FB032000F0DE
:100790000FF9042000F00CF90022642311461046E2
:1007A00005F026FBE6E700B587B001F03DFA03F05F
:1007B00003FE032100228023174802930392049131
:1007C000009101900B4600F5FE720021134805F0E0
:1007D00042F8069006AA12A1032005F09DF903F045
:1007E00068FE07B0002000BD05F0C9BF7047704724
:1007F000704705F0CCBF704705F0D7BF78000020E8
:100800008C00002090000020940000209800002020
:1008100000007A44E9040008C40000205D070008D5
:100820005374617274205461736B000008B5012128
:10083000082001F03FFE4FF47070ADF80000032077
:100840008DF8020010208DF803006946A94802F0D7
:10085000F2F808BD10B501F003FD4FF4803001F04F
:1008600019FD01F046FD002001F07DFD002001F0A2
:1008700088FD4FF4806001F07DFD4FF4004001F0F1
:1008800097FD022002F04CF8102002F05BF84FF4C4
:10089000E0114FF4803001F04FFD012001F054FDD4
:1008A000392001F010FD0028FAD0022001F04FFDA0
:1008B00001F054FD0828FBD1BDE81040B6E700B5B3
:1008C00085B0684601F098FD019805B000BDF6E7D7
:1008D00001460020012902D1874801F060BF70471E
:1008E00010B50024012804D002280AD0032816D10C
:1008F0000EE04FF400717F4802F001F978B901244D
:100900000DE001217D4802F0FAF840B9012406E02B
:100910004FF400517A4802F0F2F800B90124204661
:1009200010BD70B50024774D0221284602F0E7F88B
:1009300000B904240121284602F0E1F808B944F086
:100940000804714D4FF48071284602F0D8F808B9B8
:1009500044F001044FF48041284602F0D0F808B971
:1009600044F002044FF48051284602F0C8F808B958
:1009700044F01004204670BD01465E48052916D299
:10098000DFE801F003070A0D11004FF4707102F067
:10099000CAB8402102F0C7B8802102F0C4B84FF4B1
:1009A000807102F0C0B84FF4007102F0BCB870471B
:1009B00001465048052916D2DFE801F003070A0D69
:1009C00011004FF4707102F0B0B8402102F0ADB8E0
:1009D000802102F0AAB84FF4807102F0A6B84FF45B
:1009E000007102F0A2B8704770B50446444D284625
:1009F00002F096F8052C51D2DFE804F003101F2E08
:100A00003F000120FFF7F0FF0220FFF7EDFF03207A
:100A1000FFF7EAFFBDE870400420E5E710F0400F63
:100A200005D02846BDE87040402102F07EB8284637
:100A3000BDE87040402102F076B810F0800F05D07C
:100A40002846BDE87040802102F06FB82846BDE816
:100A50007040802102F067B810F4807F06D02846ED
:100A6000BDE870404FF4807102F05FB82846BDE8E1
:100A700070404FF4807102F056B810F4007F06D039
:100A80002846BDE870404FF4007102F04EB8284689
:100A9000BDE870404FF4007102F045B870BD00B57C
:100AA00083B04FF6FF70ADF804000020ADF80000F1
:100AB000ADF80600ADF802000121084601F006FD80
:100AC00069464FF0804002F0ABFA00214FF08040C1
:100AD00002F024FF01221102880502F07CFD0121B1
:100AE000880702F0E9FC03B000BD4FF0804002F03F
:100AF00032BF0000000C014000240140000801400A
:100B000000100140001801400014014081B0002194
:100B1000009100EBC00101EB001002E00099491CBC
:100B200000910099B1EB800FF8D301B0704700211C
:100B300001E0401C491C0278002AFAD1084670479F
:100B400001F0F5BF70B505460C4600224FF4004198
:100B5000FE4E3046FFF7F4FF002280213046FFF7BB
:100B6000EFFFFB4E002204213046FFF7E9FF280289
:100B700040EA0401F74C204601F0DEFA80212046CD
:100B800001F026FB0028F9D13046BDE87040012273
:100B90000421D5E710B5044600220421EC48FFF7F4
:100BA000CFFF2146EB4C204601F0C6FA80212046BB
:100BB00001F00EFB0028F9D110BD70B5054670207C
:100BC000FFF7E8FFE34C0021204601F0B5FA802151
:100BD000204601F0FDFA0028F9D12946204601F00F
:100BE000ABFA8021204601F0F3FA0028F9D1BDE8E4
:100BF000704001220421D648A2E770B50C46FFF7E9
:100C0000DCFF7220FFF7C6FFD24D210A284601F013
:100C100093FA8021284601F0DBFA0028F9D1E1B2ED
:100C2000284601F089FA8021284601F0D1FA0028EF
:100C3000F9D1BDE8704001220421C54880E7C64AC9
:100C40005368A3F5004CBCF5995C06D05268A2F538
:100C50000343123B02D1C9B274E7CEE7704710B527
:100C600086B00121082001F025FC0121880301F054
:100C70002DFC4FF47040ADF8000003208DF8020009
:100C800018208DF803006946B14801F0D4FEB14C3C
:100C9000204601F05BF90021ADF804104FF482709A
:100CA000ADF80600AC4A5068A0F51343203B05D0D0
:100CB0005068A0F50342123A09D010E0ADF80810D0
:100CC0000220ADF80A000120ADF80C0007E04FF457
:100CD0000060ADF80800ADF80A10ADF80C104FF444
:100CE0000070ADF80E00ADF81010ADF8121001A9AB
:100CF000204601F059F90121204601F0EAF906B039
:100D000010BD38B50420ADF8000003208DF80200B6
:100D100010208DF8030069468D4801F08CFE48F2E2
:100D20008000ADF80000894C6946204601F083FE42
:100D30000122D1032046FFF703FF01228021204634
:100D4000FFF7FEFE38BD10B5FFF7DBFFFFF787FFAB
:100D500081484168A1F51342203A00F06A81406859
:100D6000A0F5034112397CD110210120FFF767FF64
:100D7000A0210020FFF763FF01210320FFF75FFFA1
:100D80000120FFF7C3FE00210320FFF758FF0421D5
:100D90002B20FFF754FF18212820FFF750FF0521D3
:100DA0001A20FFF74CFF05212520FFF748FF0021FF
:100DB0001920FFF744FF73211C20FFF740FF742127
:100DC0002420FFF73CFF01211E20FFF738FFC1213F
:100DD0001820FFF734FF0120FFF798FEE1211820CB
:100DE000FFF72DFFF1211820FFF729FF0620FFF75D
:100DF0008DFEF5211820FFF722FF0620FFF786FE63
:100E000009211B20FFF71BFF0120FFF77FFE1121A7
:100E10001F20FFF714FF0E212020FFF710FF812174
:100E20001E20FFF70CFF0120FFF770FE00219D2020
:100E3000FFF705FF0021C020FFF701FF00210E2072
:100E4000FFF7FDFE00210F20FFF7F9FE0021102023
:100E5000FFF7F5FE00211120FFF7F1FE002112201F
:100E600000E0E3E1FFF7EBFE00211320FFF7E7FED0
:100E700000211420FFF7E3FE00211520FFF7DFFE1D
:100E800000211620FFF7DBFE00211720FFF7D7FE19
:100E900001213420FFF7D3FE00213520FFF7CFFEDC
:100EA00000214B20FFF7CBFE00214C20FFF7C7FEAF
:100EB00000214E20FFF7C3FE00214F20FFF7BFFEA9
:100EC00000215020FFF7BBFE00213C20FFF7B7FEBA
:100ED00000213D20FFF7B3FE01213E20FFF7AFFECA
:100EE0003F210846FFF7ABFE02214020FFF7A7FE97
:100EF00002214120FFF7A3FE00214220FFF79FFEC1
:100F000000214320FFF79BFE00214420FFF797FEBE
:100F100000214520FFF793FEEF214620FFF78FFECB
:100F200000214720FFF78BFE00214820FFF787FEB6
:100F300001214920FFF783FE3F214A20FFF77FFE72
:100F400008211D20FFF77BFE002107E0001401406F
:100F5000000C014000380040340000208620FFF7DC
:100F60006EFE30218720FFF76AFE02218820FFF7FE
:100F700066FE05218920FFF762FE01218D20FFF723
:100F80005EFE20218B20FFF75AFE01213320FFF760
:100F900056FE01213720FFF752FE00217620FFF791
:100FA0004EFE10218F20FFF74AFE67219020FFF7A9
:100FB00046FE07219120FFF742FE65219220FFF7B0
:100FC0003EFE07219320FFF73AFE01219420FFF710
:100FD00036FE76219520FFF732FE56219620FFF748
:100FE0002EFE00219720FFF72AFE06219820FFF70A
:100FF00026FE03219920FFF722FE00219A20FFF709
:101000001EFE50210120FFF71AFE04210520FFF7E4
:1010100016FE80210020FFF712FE01213B20FFF782
:101020000EFE0420FFF772FD2021BDE810400020D5
:1010300005E60520FFF76AFD4FF40041E520FFF7C4
:10104000FEFD01210020FFF7FAFD4FF48071012021
:10105000FFF7F5FD4FF4E0610220FFF7F0FD41F2EC
:1010600030010320FFF7EBFD00210420FFF7E7FD2F
:1010700040F202210820FFF7E2FD00210920FFF7DE
:10108000DEFD00210A20FFF7DAFD00210C20FFF72A
:10109000D6FD00210D20FFF7D2FD00210F20FFF724
:1010A000CEFD00211020FFF7CAFD00211120FFF71F
:1010B000C6FD00211220FFF7C2FD00211320FFF71B
:1010C000BEFD1420FFF722FD41F2B0711020FFF7A2
:1010D000B6FD40F237111120FFF7B1FD0520FFF7F3
:1010E00015FD40F239111220FFF7A9FD0520FFF789
:1010F0000DFD4FF4E8511320FFF7A1FD1321292026
:10110000FFF79DFD0520FFF701FD00212020FFF7DF
:1011100096FD00212120FFF792FD06213020FFF7E8
:101120008EFD40F201113120FFF789FD03213220AD
:10113000FFF785FD4FF483713520FFF780FD40F602
:1011400002313620FFF77BFD40F202313720FFF7F6
:1011500076FD40F207713820FFF771FD0721392035
:10116000FFF76DFD4FF4C0613C20FFF768FD40F2D2
:101170000B213D20FFF763FD00215020FFF75FFDAD
:10118000EF215120FFF75BFD00215220FFF757FDB3
:1011900040F23F115320FFF752FD4FF41C516020E5
:1011A000FFF74DFD01216120FFF749FD00216A2075
:1011B000FFF745FD00218020FFF741FD0021812040
:1011C000FFF73DFD00218220FFF739FD002183203C
:1011D000FFF735FD00218420FFF731FD0021852038
:1011E000FFF72DFD10219020FFF729FD002192200F
:1011F000FFF725FD03219320FFF721FD4FF48871B0
:101200009520FFF71CFD00219720FFF718FD002116
:101210009820FFF714FD41F218010320FFF70FFD9E
:10122000BDE8104040F27311072008E510BD70B50D
:101230000024FE4D298821F038012980298841F0B9
:1012400008012980FFF7B9FC7320FFF7A3FCFF21F9
:10125000284600F071FF8021284600F0B9FF0028E1
:10126000F9D10121284600F0B3FF0028F9D0284623
:1012700000F064FF601CC4B2052CE8D3FF212846AF
:1012800000F05AFF8021284600F0A2FF0028F9D183
:101290000121284600F09CFF0028F9D0284600F0E4
:1012A0004DFF0446FF21284600F046FF80212846D6
:1012B00000F08EFF0028F9D10121284600F088FFB8
:1012C0000028F9D0284600F039FFE1B240EA0124B5
:1012D00001220421D648FFF733FC288820F038008B
:1012E0002880204670BD10B5FFF72DFD0020FFF7C8
:1012F0009EFF49F22031CF4A884201D1516010BD92
:1013000048F212305060BDE810401CE501B4BDF851
:101310000000C849088001B0704701B4BDF8000062
:10132000C449488001B0704710B50C46C1494A68AD
:10133000A2F51343203B12D04968A1F50342123AAB
:1013400016D101464220FFF77AFCC4F30021432066
:10135000FFF775FCE1B2BDE8104044206FE40146A0
:101360002020FFF76CFC2146BDE81040212066E4F8
:1013700010BD70B50446AF4E7068AC4DA0F513417A
:10138000203913D1210A284600F0D6FE80212846B4
:1013900000F01EFF0028F9D1E1B2284600F0CCFE93
:1013A0008021284600F014FF0028F9D17068A0F5CC
:1013B0000341123922D1A04E00224FF400413046A1
:1013C000FFF7BEFB012280213046FFF7B9FB984EA4
:1013D000002204213046FFF7B3FB2146284600F0E7
:1013E000ABFE8021284600F0F3FE0028F9D13046FC
:1013F000BDE8704001220421FFF7A2BB70BD10B50B
:101400002220FFF7DAFBBDE810407220FFF7C2BBD5
:101410002DE9F74F07469046002538460199FFF71A
:1014200083FF844EDFF808B24FF0010A49F22039F9
:101430007068484501D1FFF7E2FF002438F8150035
:101440000AFA04F1084203D17088FFF792FF02E024
:101450003088FFF78EFF641C102CEFD3706848456E
:1014600004D1012204215846FFF76AFB781CC7B259
:1014700038460199FFF758FF6D1C182DD8D303B0DB
:10148000BDE8F08F203AD2B26C4B02EB420203EB84
:101490000212BDE72DE9F04107460D46002440F257
:1014A0003F1608E031463846FFF7ECFFA6F1100082
:1014B00086B26D1C641C2A78002A01D0142CF1D34A
:1014C000BDE8F0815EA1E5E72DE9F0410746002483
:1014D00040F23F110020FFF727FF564E706849F297
:1014E0002035A84201D1FFF78AFF3846FFF741FFB8
:1014F000641CB4F5963FF8D37068A84206D1BDE8E5
:10150000F041012204214A48FFF71ABBBDE8F081EF
:101510002DE9F04782460C460026B146002540F2F0
:101520003F172046FFF703FB8046B8F1C80F0BD9E1
:1015300039465046FFF7F8FE5046FFF7C3FF5046C6
:10154000BDE8F04744A1A5E740F23F115046FFF740
:10155000EBFEB8F1010837D3B9F1140F1CD1207894
:10156000202829D00027002D08D9B1B220225046CA
:10157000FFF788FF103E7F1CAF42F6D3601B441C70
:1015800008EB0500A0F101080AF1180000F0FF0ABD
:1015900040F23F174FF00009227839465046FFF7D6
:1015A00071FF09F10109A7F1100087B2641C6D1CDD
:1015B0002078202802D004E0641CE5E70025A7F18C
:1015C0001006B8F10108C7D2BDE8F0872DE9F04157
:1015D00007460C469846DFF85CC0DCF80410B81AE1
:1015E000461CA4EB0800451CA1F51343203B06D084
:1015F000DCF80400A0F50341123942D063E09742C1
:1016000004D3B1B25020FFF71AFB03E000215020B1
:10161000FFF715FB39465120FFF711FB444527D34F
:10162000A9B25220FFF70BFB26E000000038004073
:10163000000C014034000020001401405A710008E1
:10164000202020202020202020202020202020209A
:101650002020202000000000202020537472696E9A
:101660006720746F6F206C6F6E6720200000000091
:1016700000215220FFF7E3FA21465320FFF7DFFA5B
:1016800021E0D0210120FFF7DAFA14210520FFF72D
:10169000D6FAB1B24520FFF7D2FA39464620FFF715
:1016A000CEFAC5F300214720FFF7C9FAE9B2482076
:1016B000FFF7C5FAC4F300214920FFF7C0FAE1B2F1
:1016C0004A20FFF7BCFA21463846BDE8F0412BE638
:1016D00010B5FE484168A1F51342203A0ED040688B
:1016E000A0F50341123917D150210120FFF7A7FAC5
:1016F0000421BDE810400520FFF7A1BA4FF4A07304
:10170000F022591EEF20FFF761FFBDE8104041F2C3
:1017100018010320FFF793BA10BD10B50446FFF778
:101720006EFE2046FFF725FE0122BDE81040042191
:10173000E748FFF705BA2DE9F04706468A46154601
:101740009846002451463046FFF7EEFDDF4F49F240
:101750002039B8F1000F0AD0002D2ED948F21238E6
:10176000786848451AD13888FFF7D7FF1CE07868B9
:10177000484501D1FFF743FE002D05D93888FFF712
:10178000F8FD641CAC42F9D37868484515D1BDE832
:10179000F04701220421CE48FFF7D2B978684045CE
:1017A00002D13888FFF7E5FD701CC6B251463046BD
:1017B000FFF7BAFD641CAC42D2D3BDE8F0872DE937
:1017C000F04105460E4617461C4600232246314688
:1017D0002846FFF7B0FFE819C0B200232246314681
:1017E000FFF7A9FF01233A4631462846FFF7A3FF3A
:1017F000301B401C81B23A462846BDE8F041012327
:1018000099E72DE9F04F85B0074688460320A0EB05
:10181000420600241546DFF8B4A248F2123908EB5C
:10182000050081B207EB040B04900BF0FF00FFF7FB
:101830007BFDDAF80410A1F5134020387ED0DAF8E9
:101840000400484503D1BAF80000FFF792FDA8EB69
:10185000050081B203900BF0FF00FFF765FDDAF899
:101860000410A1F51340203869D0DAF80400484587
:1018700003D1BAF80000FFF77CFD0498A7EB040B36
:1018800081B20BF0FF00FFF74FFDDAF80410A1F56D
:10189000134020387CD0DAF80400484503D1BAF868
:1018A0000000FFF766FD039881B20BF0FF00FFF721
:1018B0003BFDDAF80410A1F51340203879D0DAF8AE
:1018C0000400484503D1BAF80000FFF752FD08EBC9
:1018D000040081B207EB050B02900BF0FF00FFF74D
:1018E00023FDDAF80410A1F51340203866D0DAF8A9
:1018F0000400484503D1BAF80000FFF73AFDA8EB11
:10190000040081B201900BF0FF00FFF70DFDDAF843
:101910000410A1F51340203855D0DAF804004845EA
:1019200003D1BAF80000FFF724FD0298A7EB050BDE
:1019300081B20BF0FF00FFF7F7FC01E02AE02EE098
:10194000DAF80410A1F51340203841D0DAF8040089
:10195000484503D1BAF80000FFF70BFD019881B2AA
:101960000BF0FF00FFF7E0FCDAF80410A1F51340DC
:10197000203832D0DAF80400484503D1BAF8000024
:10198000FFF7F7FC002E2DDA06EB8400861D2FE012
:101990000AE00EE0BAF80000FFF7BFFE57E7BAF81A
:1019A0000000FFF7BAFE68E7BAF80000FFF7B5FEDF
:1019B00079E7BAF80000FFF7B0FE88E7BAF8000050
:1019C000FFF7ABFE9BE7BAF80000FFF7A6FEACE717
:1019D000BAF80000FFF7A1FEC0E7BAF80000FFF771
:1019E0009CFECFE7601B06EB800000F10A066D1E2F
:1019F000641CAC427FF613AF05B0BDE8F08F2DE953
:101A0000F0470646002540F23F110020FFF78CFC0E
:101A10002E4F786849F22039484501D1FFF7EFFC95
:101A20004FF00108002456F8250008FA04F1084296
:101A300003D17888FFF79DFC02E03888FFF799FC16
:101A4000641C202CEFD36D1CB5F5166FEAD37868B3
:101A5000484506D1BDE8F047012204211C48FFF7A4
:101A60006FB8BDE8F08710B518484168A1F513427A
:101A7000203A46D04068A0F5034112397CD1732149
:101A80001C20FFF7DCF874212420FFF7D8F801218F
:101A90001E20FFF7D4F8C1211820FFF7D0F801204D
:101AA000FFF734F8E1211820FFF7C9F8F1211820D9
:101AB000FFF7C5F80620FFF729F8F5211820FFF7F2
:101AC000BEF80620FFF722F8092103E034000020C9
:101AD000000C01401B20FFF7B2F80120FFF716F8B9
:101AE00011211F20FFF7ABF80E212020FFF7A7F8E8
:101AF00081211E20FFF7A3F8BDE810400120FFF769
:101B000005B800211020FFF79AF800211120FFF7F7
:101B100096F800211220FFF792F800211320FFF71A
:101B20008EF81420FEF7F2FF41F2B0711020FFF79B
:101B300086F840F237111120FFF781F80520FEF7F3
:101B4000E5FF40F239111220FFF779F80520FEF782
:101B5000DDFF4FF4E8511320FFF771F8132129201E
:101B6000FFF76DF80520FEF7D1FFBDE8104040F209
:101B700073110720FFF763B810BD10B52548416801
:101B8000A1F51342203A1DD04068A0F50341123957
:101B90001FD150210120FFF752F804210520FFF743
:101BA0004EF880210020FFF74AF801213B20FFF783
:101BB00046F80420FEF7AAFF2021BDE810400020CF
:101BC000FFF73DB8BDE8104040F273110720FFF762
:101BD00036B810BD10B50F484168A1F51342203A40
:101BE00011D04068A0F50341123912D1A021002084
:101BF000FFF725F80420FEF789FF0021BDE810401B
:101C00003B20FFF71CB80021BDE810400720FFF77C
:101C100016B810BD3400002070472A2803D21030B7
:101C2000C0B201F0FDBE704701F0B2BE2A2803D257
:101C30001030C0B201F051BF704770B504460D4678
:101C40002A2C08D201F0A8FE484941F82450BDE8EA
:101C5000704001F0A5BE70BD70B504460D462A2C3B
:101C60000DD201F099FE064604F11000C0B22946DB
:101C700001F090FF3046BDE8704001F091BE70BDAC
:101C8000704710B500243A492046FFF7D6FF641C80
:101C90002A2CF8D310BD10B5044601F07DFE35495D
:101CA0000A78521C0A7001F07BFE2A2C04D22F48BD
:101CB00050F8240000B18047BDE8104002F09DBB01
:101CC0000020E8E70120E6E70220E4E70320E2E75E
:101CD0000420E0E70520DEE70620DCE70720DAE75E
:101CE0000820D8E70920D6E70A20D4E70B20D2E75E
:101CF0000C20D0E70D20CEE70E20CCE70F20CAE75E
:101D00001020C8E71120C6E71220C4E71320C2E75D
:101D10001420C0E71520BEE71620BCE71720BAE75D
:101D20001820B8E71920B6E71A20B4E71B20B2E75D
:101D30001C20B0E71D20AEE71E20ACE71F20AAE75D
:101D40002020A8E72120A6E72220A4E72320A2E75D
:101D50002420A0E725209EE726209CE727209AE75D
:101D6000282098E7292096E72A2094E79809002060
:101D7000811C00084600002010B50446FEF79FFDB8
:101D8000014671482F2C1BD021DC242C18D013DCE9
:101D9000082C31D007DC072C41D2DFE804F02D2DD0
:101DA0002D402D402D000A2C26D0202C08D0222C8E
:101DB00006D0232C33D103E0A4F12502092A2ED822
:101DC0004068C0F3C220042818D2084610BDA4F110
:101DD00040021E2A23D2DFE802F016161616161647
:101DE0002222222222162222161622161616161633
:101DF0001616221622161616084610BDC01E4000E2
:101E0000B1FBF0F010BD4068C0F30220042801D2FD
:101E1000084610BDC01E4000B1FBF0F010BD002010
:101E200010BD494901232F281BD021DC242818D0BC
:101E300013DC082831D007DC072818D2DFE800F0CF
:101E40002D2D2D172D172D000A2826D0202808D03B
:101E5000222806D023280AD103E0A0F12502092A6E
:101E600005D88A69203803FA00F01043886170476A
:101E700040381E28FBD2DFE800F01616161616169C
:101E80000F0F0F0F0F160F0F16160F16161616162A
:101E900016160F160F161616E9E74A6903FA00F030
:101EA000104348617047CA6903FA00F01043C861E3
:101EB0007047254901232F281BD022DC242818D065
:101EC00013DC082832D007DC072819D2DFE800F03D
:101ED0002E2E2E182E182E000A2827D0202808D0A3
:101EE000222806D023280BD103E0A0F12502092ADD
:101EF00006D88A69203803FA00F022EA00008861D7
:101F0000704740381E28FBD2DFE800F0171717177C
:101F100017170F0F0F0F0F170F0F17170F17171791
:101F2000171717170F170F171717E9E74A6903FA5B
:101F300000F022EA000048617047CA6903FA00F025
:101F400022EA0000C86170470010024010B5A0F1FD
:101F50008040B0F5605010D0B0F5806F18D0B0F56B
:101F6000784F20D10121080300F0BCFABDE81040F1
:101F700000214FF4805000F0B5BA0121880300F031
:101F8000BDFABDE8104000214FF4804000F0B6BA21
:101F90000121C80300F0B2FABDE8104000214FF45F
:101FA000004000F0ABBA10BD10B4028802F44152F8
:101FB0000B88B1F802C0CC8843EA0C03B1F804C026
:101FC0004CEA040C43EA0C03B1F808C043EA0C03E2
:101FD000B1F80AC043EA0C03B1F80CC043EA0C03A1
:101FE000B1F80EC043EA0C031A430280828B22F43C
:101FF00000628283098A018210BC7047F0B585B007
:1020000005460C46022000210126AA8B22F0BF02C1
:1020100022F47062AA8302222A84AF8B2289022AC8
:1020200021D0A08800B10226684600F0E5F9E088DA
:10203000B0F5007F2DD0218970014143009800EB5D
:1020400080004000B0FBF1F0401D80B28349A1FB4D
:102050000010C00800F00101401AC0F34F004FF615
:10206000FF7202EA0121821EFE2A01D30220002112
:10207000E2880843104328842088618862890843E5
:10208000A18811430843384340F40060A88305B099
:10209000F0BD0098218900EB800040000902B0FBF0
:1020A000F1F0401D80B2D1E70021018041808180A4
:1020B000C180018141818181C181072101827047F5
:1020C0000021018041808180C18002220281418102
:1020D0007047002904D0018841F040010180704719
:1020E000018821F0400101807047002904D0818BD4
:1020F00041F4806181837047818B21F48061818309
:1021000070470909012303FA01F189B2002A03D0BB
:102110008288114381807047828822EA0101818090
:102120007047002A03D082881143818070478288DB
:1021300022EA010181807047818170478089704760
:10214000A1F57E42FF3A04D0018841F480710180FC
:102150007047018821F4807101807047002904D004
:10216000818841F0040181807047818821F0040159
:1021700081807047028822F4006202800288114345
:1021800001807047018841F4805101807047002927
:1021900004D0018841F4005101807047018821F486
:1021A000005101807047012901D0008B7047808A5F
:1021B0007047008A7047B1F5804F04D0018821F440
:1021C000804101807047018841F48041018070475F
:1021D0000246002012890A4200D0012070472029BF
:1021E00006D040290AD0082908D0C9430181704788
:1021F0000189018841F040010180704700897047E2
:10220000002201F00F034FF0010C0CFA03F39BB214
:1022100009090CFA01F189B2B0F804C00CEA010115
:102220000089184201D001B101221046704755299A
:102230000BD056290FD053290DD001F00F010122E8
:1022400002FA01F1C943018170470189018841F017
:10225000400101807047008970470000CDCCCCCC94
:10226000B948016841F0010101604168B74A114075
:102270004160016821F4102121F080710160016842
:1022800021F480210160416821F4FE0141600021B8
:1022900081607047AC490A6822F480320A600A689B
:1022A00022F480220A60B0F5803F07D0B0F5802F7D
:1022B00003D1086840F4A02008607047086840F423
:1022C000803008607047002241099F4B01290CD0E3
:1022D00002290CD0596A00F01F00012303FA00F014
:1022E000084200D00122104670471968F3E7196AC6
:1022F000F1E730B5964C40F2FF153120FFF7E3FFD0
:1023000020706068401C6060207810B96068A84246
:10231000F3D13120FFF7D7FF08B1012030BD0020F5
:1023200030BD894A116821F0F80141EAC00010600F
:102330007047884908607047834B5A6822F47C12C2
:1023400008431043586070478249086670477E4AC8
:10235000516821F003010843506070477A48406893
:1023600000F00C007047784A516821F0F0010843F2
:1023700050607047744A516821F4E061084350602E
:102380007047714A516821F4605141EAC0005060C1
:1023900070476D4A002903D0517A08435072704744
:1023A000517A21EA0000507270476B49086070470B
:1023B000654A516821F440410843506070476249C2
:1023C000002281F8202081F82020012805D004284F
:1023D00002D1052081F820007047012081F82000FB
:1023E00070475E490860704757490A6A104308629F
:1023F00070475B4908607047534A516801F00C010F
:10240000584B00292CD004292CD008292CD003604B
:10241000516801F0F0010909DFF84CC11CF8011006
:10242000036823FA01F14160536803F4E0631B0A77
:102430001CF8033021FA03F38360536803F46053FC
:10244000DB0A1CF80330D940C160526802F44042F4
:10245000920BACF104039A5CB1FBF2F1016170479D
:102460000360D5E70360D3E7516801F470110223DC
:1024700003EB9141536803F480333BB1536813F489
:10248000003F07D0394B59430160C1E7374B5943EF
:102490000160BDE7334B59430160B9E72A4A00297F
:1024A00003D05169084350617047516921EA000027
:1024B00050617047244A002903D091690843906114
:1024C0007047916921EA0000906170471E4A002917
:1024D00003D0D1690843D0617047D16921EA000077
:1024E000D0617047184A002903D0D1680843D060F2
:1024F0007047D16821EA0000D0607047124A002975
:1025000003D01169084310617047116921EA000086
:10251000106170471649086070470E49C8647047DB
:102520000949C87170470848416A41F080714162A9
:10253000704701460020044A92680A4200D00120F8
:102540007047014988727047001002400000FFF890
:102550003C00002000004242D80042428004424237
:102560003C04424200127A002E83000800093D001C
:102570004004424210B5A0F18040B0F5923010D036
:10258000B0F5806F18D0B0F5C05F20D10121C8032D
:10259000FFF7A8FFBDE8104000214FF40040FFF70F
:1025A000A1BF01214802FFF79DFFBDE810400021B7
:1025B0004FF40070FFF796BF01218802FFF792FFEA
:1025C000BDE8104000214FF48060FFF78BBF10BDC5
:1025D000426822F4807222F4702291F804C00B68E1
:1025E00042EA0C221A4342608268CA4B1A40D1F870
:1025F00008C0CB6843EA0C0391F805C042EA4C02DC
:102600001A438260C26A22F47002097C491EC9B270
:1026100042EA0151C16270470021016001714171BC
:102620008160C160012101747047002904D0816874
:1026300041F0010181607047816821F001018160F2
:102640007047002904D0816841F48071816070472F
:10265000816821F4807181607047C9B2002A03D07B
:102660004268114341607047426822EA01014160BB
:102670007047816841F00801816070470146002081
:10268000896811F0080F00D001207047816841F07F
:1026900004018160704701460020896811F0040F31
:1026A00000D001207047002904D0816841F4A001C6
:1026B00081607047816821F4A00181607047014604
:1026C0000020896811F4800F00D001207047426813
:1026D00022F46042491E42EA4131416070470029BC
:1026E00004D0416841F4006141607047416821F4C1
:1026F00000614160704730B4072509290CD9C468CE
:10270000A1F10A0C0CEB4C0C05FA0CF5AC4303FAE6
:102710000CF32343C36009E0046901EB410C05FAA3
:102720000CF5AC4303FA0CF3234303614FF01F0C89
:10273000072A0CD2436B521E02EB82020CFA02FCF7
:1027400023EA0C0391401943416330BC70470D2AC2
:102750000CD2036BD21F02EB82020CFA02FC23EABA
:102760000C0391401943016330BC7047C36A0D3AB2
:1027700002EB82020CFA02FC23EA0C03914019439B
:10278000C16230BC7047002904D0816841F48011D7
:1027900081607047816821F4801181607047C06C4E
:1027A00080B270475C4800687047002904D04168D7
:1027B00041F4806141607047416821F4806141606B
:1027C0007047002904D0416841F48051416070474E
:1027D000416821F4805141607047826822F4E042F0
:1027E000114381607047002904D0816841F40041A1
:1027F00081607047816821F4004181607047002941
:1028000004D0816841F4021181607047816821F42D
:1028100002118160704701460020896811F4001F91
:1028200000D00120704730B4072509290CD9C468AD
:10283000A1F10A0C0CEB4C0C05FA0CF5AC4303FAB5
:102840000CF32343C36009E0046901EB410C05FA72
:102850000CF5AC4303FA0CF323430361836BC3F31E
:10286000015CA2EB0C02921C02EB82024FF01F0CE7
:102870000CFA02FC23EA0C0391401943816330BC3B
:102880007047826B22F44012491E42EA0151816373
:102890007047425070470844806A80B2704742686F
:1028A00022F4007222F440021143416070474162F9
:1028B00082627047426822F01F02114341607047F4
:1028C0001649002804D0086840F4000008607047EA
:1028D000086820F400000860704702460020126873
:1028E0000A4200D001207047C943016070470022AE
:1028F0000B0AD0F804C0C9B20CEA01010068184202
:1029000001D001B1012210467047090AC943016094
:1029100070470000FDF7F1FF4C24014008240140FE
:102920000D490A6802F038020A600A68104308601C
:10293000704709490A6822F008020A600A681043D1
:102940000860704704490A6822F010020A600A68A9
:1029500010430860704700000020024010B5A34AF1
:10296000811A90423DD014DCA0F18040B0F5843053
:1029700023D0B0F5806F2AD0B0F5006F4FD1012180
:102980001020FFF7AFFD0021BDE810401020FFF739
:10299000A9BDB1F5806F2ED0B1F5006F35D0B1F57E
:1029A000406F3CD101210802FFF79CFDBDE81040BB
:1029B00000214FF48070FFF795BD01210420FFF73F
:1029C00091FD0021BDE810400420FFF78BBD0121DF
:1029D0000820FFF787FD0021BDE810400820FFF721
:1029E00081BD01212020FFF77DFD0021BDE81040C1
:1029F0002020FFF777BD01214020FFF773FD002164
:102A0000BDE810404020FFF76DBD01218020FFF799
:102A100069FD0021BDE810408020FFF763BD10BDB7
:102A200010B501210846FFF75DFD0021BDE810400B
:102A30000120FFF757BD2DE9F001002291F803C0F6
:102A40000CF00F031CF0100F03D091F802C04CEAF9
:102A5000030391F800C04FF00F071CF0FF0F4FF079
:102A600001061DD0046806FA02FC0D8805EA0C0573
:102A7000654511D1950007FA05F824EA080403FA20
:102A800005F52C43CD78282D01D1C0F814C0CD78A0
:102A9000482D01D1C0F810C0521C082AE3D30460AD
:102AA0000A88FF2A20D94468002202F1080C06FA9D
:102AB0000CFC0D8805EA0C05654511D1950007FA57
:102AC00005F824EA080403FA05F52C43CD78282DEF
:102AD00001D1C0F814C0CD78482D01D1C0F810C084
:102AE000521C082AE1D34460BDE8F00170474FF65C
:102AF000FF710180022181700421C170704702467C
:102B0000002092680A4200D001207047806880B29D
:102B1000704702460020D2680A4200D00120704768
:102B2000C06880B270470161704741617047002AF8
:102B300001D00161704741617047C160704741F445
:102B40008032826181618261816980697047284B2E
:102B50001A684FF6807C02EA0C0242EA0010084331
:102B6000186070472349C861704770B4204C626890
:102B7000C0F3034C4FF4401333EA00054FEA5053BF
:102B80004FEA031386B206FA03F30AD010F4801F4B
:102B90000ED0032000FA0CF022EA000040F0706032
:102BA0000AE022F07060626822F07062626003E006
:102BB00022EA030040F0706001B11843606070BC0D
:102BC00070478A07120F0F23934021F0030101F190
:102BD000804101F58031D1F808C02CEA03038B60F5
:102BE0008B689040184388607047000000140140D3
:102BF000000001400000204210B5CF4A811A9042E7
:102C00002FD012DCA0F18040B0F588401ED0B0F586
:102C1000806F3CD101218804FFF770FCBDE81040B3
:102C200000214FF48020FFF769BCB1F5806F23D0FD
:102C3000B1F56C4F2BD101218803FFF753FCBDE8A0
:102C4000104000214FF48040FFF74CBC01214804A4
:102C5000FFF754FCBDE8104000214FF40030FFF7AF
:102C60004DBC0121C804FFF749FCBDE8104000211C
:102C70004FF40020FFF742BC01210805FFF73EFC9E
:102C8000BDE8104000214FF48010FFF737BC10BDA5
:102C900030B585B004460D46208A4CF6FF710840D9
:102CA000E98808432082A0894EF6F3110840A988DC
:102CB0002A8911436A8910430843A081A08A4FF6EC
:102CC000FF410840A9890843A0826846FFF794FBAA
:102CD000A4F18040B0F59C301FD0029800EBC001F9
:102CE00001EB001029688900B0FBF1F0934AA2FBC8
:102CF0000031490909010B096FF0180C03FB0CF3B3
:102D000000EB8300322303EB0010A2FB0020C0F392
:102D100043100843208105B030BD0398DEE74FF42F
:102D20001651016000218180C18001810C22428105
:102D300081817047028A4FF2FF031A400B88B1F875
:102D400002C043EA0C03B1F804C0C9884CEA01018F
:102D50001943114301827047002101804180818025
:102D6000C1807047002904D0818941F400518181DC
:102D70007047818921F4005181817047C1F342136A
:102D800001F01F014FF0010C0CFA01F1012B07D0EB
:102D9000022B07D014303AB102681143016070472A
:102DA0000C30F8E71030F6E7026822EA0101016012
:102DB0007047002A03D0828A114381827047828A39
:102DC00022EA010181827047028A22F00F02028208
:102DD000028A114301827047828922F40062828153
:102DE0008289114381817047002904D0818941F093
:102DF000020181817047818921F002018181704740
:102E0000028A22F020020282028A11430182704764
:102E1000002904D0018A41F4804101827047018A6F
:102E200021F4804101827047C1F30801818070471D
:102E30008088C0F308007047818941F001018181D9
:102E40007047028BD2B20283028B42EA01210183D6
:102E50007047028B02F47F420283028B114301838D
:102E60007047002904D0818A41F020018182704797
:102E7000818A21F0200181827047002904D0818A53
:102E800041F0100181827047818A21F01001818216
:102E90007047002904D0818A41F00801818270477F
:102EA000818A21F0080181827047828A22F004021F
:102EB0008282828A114381827047002904D0818AEC
:102EC00041F0020181827047818A21F002018182F2
:102ED00070470246002012880A4200D00120704745
:102EE000C9430180704710B44FF0000CC1F3421386
:102EF00001F01F02012404FA02F2012B0FD0022B71
:102F000010D0838A1A40090A04FA01F100880840A7
:102F100012B108B14FF0010C10BC604670478389B4
:102F20001A40F0E7038A1A40EDE7090A012202FA83
:102F300001F1C94301807047004C00401F85EB51EF
:102F400010B5FC4A811A904255D017DCB0F1804F81
:102F500033D0A0F18040B0F5806038D0B0F5806FFC
:102F60003FD0B0F5006F5AD101210820FFF7C6FA13
:102F70000021BDE810400820FFF7C0BAB1F5806F0E
:102F800043D0B1F58E3F0DD0B1F5923F47D101212D
:102F90004803FFF7A7FABDE8104000214FF40050A6
:102FA000FFF7A0BA0121C802FFF79CFABDE8104064
:102FB00000214FF40060FFF795BA01210846FFF7A2
:102FC0009DFA0021BDE810400120FFF797BA0121CA
:102FD0000220FFF793FA0021BDE810400220FFF71E
:102FE0008DBA01210420FFF789FA0021BDE81040C5
:102FF0000420FFF783BA01211020FFF77FFA002198
:10300000BDE810401020FFF779BA01212020FFF71A
:1030100075FA0021BDE810402020FFF76FBA10BDFF
:10302000028802F08F020280CA884B881A43038804
:103030001A4302808A8882850A8802850122828258
:10304000A0F18042B2F5963204D0A0F18042B2F5F0
:103050009A3201D1097A0186704710B4028C22F0AD
:1030600001020284038C8288B0F818C02CF0700C26
:103070000C8844EA0C0C23F002030C8923434C888F
:103080002343CC888486A0F18044B4F5963404D0E0
:10309000A0F18044B4F59A340FD123F008034C8991
:1030A000234323F004038C88234322F4014222F4B7
:1030B00002428C892243C9890A438280A0F818C041
:1030C000038410BC704730B4028C22F010020284DA
:1030D000028C8388B0F818C02CF4E0440D884FF6B9
:1030E000FF7C0CEA05252C4322F020020D890CEA16
:1030F00005152A434D880CEA05152A43CD88058716
:10310000A0F18045B5F5963504D0A0F18045B5F520
:103110009A3517D122F080024D890CEA05152A4311
:1031200022F040028D880CEA05152A4323F404435B
:1031300023F408438D890CEA85052B43C9890CEAE1
:1031400081010B4383800483028430BC704730B418
:10315000028C22F480720284028C8388B0F81CC036
:103160002CF0700C0C8844EA0C0422F400720D89D7
:103170004FF6FF7C0CEA05252A434D880CEA05250D
:103180002A43CD888587A0F18045B5F5963504D0D2
:10319000A0F18045B5F59A3517D122F400624D892A
:1031A0000CEA05252A4322F480628D880CEA052565
:1031B0002A4323F4104323F420438D890CEA051598
:1031C0002B43C9890CEA01110B4383808483028459
:1031D00030BC704730B4028C22F480520284038CDD
:1031E0008288B0F81CC02CF4E04C0D884FF6FF74B8
:1031F00004EA052545EA0C0C23F400530D8904EA82
:1032000005352B434D8804EA05352B43CD88A0F8BE
:103210004050A0F18045B5F5963504D0A0F1804529
:10322000B5F59A3505D1C2F30D02898904EA8111F9
:103230000A438280A0F81CC0038430BC7047828B94
:1032400022F440628283828B4FF6FF7303EA0121EE
:1032500011438183704730B4B0F820C02CF4805CF7
:10326000A0F820C0848BB0F820C04FF6FF7505EAA7
:10327000013124F4734405EA022205EA03331A43B8
:1032800022432CF40053194341F48051828301847A
:1032900030BC7047828B22F00C028283828B1143F8
:1032A0008183704730B4B0F820C02CF4807CA0F843
:1032B00020C0848BB0F820C04FF6FF7505EA0121CD
:1032C00024F0F30405EA03131A4322432CF4007399
:1032D000194341F480718283018430BC7047028BB2
:1032E00022F440620283028B4FF6FF7303EA01214E
:1032F00011430183704730B4B0F820C02CF0100C9B
:10330000A0F820C0048BB0F820C04FF6FF7505EA86
:10331000011124F4734405EA0333234305EA02222E
:103320001A432CF02003194341F010010283018459
:1033300030BC704700100040028B22F00C02028368
:10334000028B11430183704730B4B0F820C02CF0D9
:10335000010CA0F820C0048BB0F820C024F0F304C6
:103360004FF6FF7505EA03131A4322432CF00203BC
:10337000194341F001010283018430BC704770B5EC
:1033800005460C462188B4F802C0A288238900298A
:103390000CD0042913D008291AD061462846FFF71B
:1033A0005AFFE1882846BDE8704048E76146284654
:1033B000FFF7CAFFE1882846BDE87040BCE76146D8
:1033C0002846FFF798FFE1882846BDE8704086E769
:1033D00061462846FFF766FFE1882846BDE8704051
:1033E00058E72DE9F04107460C4600250126618883
:1033F000002900D10225A288012A00D102262088B6
:10340000238988B13846FFF776FFE1883846FFF711
:1034100066FF2389324629463846FFF795FFE18843
:103420003846BDE8F04187E73846FFF78DFFE18871
:103430003846FFF781FF2389324629463846FFF791
:103440005AFFE1883846BDE8F04148E70A884B88D2
:10345000B1F806C01A438B8843EA0C031A430B8960
:103460001A434B8989891A431143A0F844107047C5
:103470004FF6FF71818000210180C180418001727F
:1034800070470021018041808180C180018141819C
:103490008181C181704700210180418001228280A9
:1034A000C180018170470021018041808180C180FD
:1034B0000181418181817047002904D0018841F058
:1034C000010101807047018821F0010121F47C4154
:1034D00001807047002906D0B0F8441041F4004143
:1034E000A0F844107047B0F84410C1F30E01A0F8E2
:1034F00044107047002A03D08289114381817047AC
:10350000828922EA010181817047818270471143DB
:10351000A0F848107047002A03D0828911438181A6
:103520007047828922EA010181817047018921F077
:10353000070101817047028922F070021143018165
:10354000704700B503461846FFF7F5FF188940F0AD
:103550000700188100BD70B50D4604461146602D68
:103560000CD001222046FFF7EFFE29462046FFF748
:10357000E2FF208940F00700208170BD0122204633
:10358000FFF7B9FEF1E7B0F808C00CF0FF0C1143EB
:103590004FF6FF7202EA0322114341EA0C01018156
:1035A000704710B504462046FFF7EDFF208920F054
:1035B000070040F0070020F0700040F0700020810C
:1035C00010BD10B504462046FFF7DDFF208940F40A
:1035D0008040208110BD018582827047028822F4DC
:1035E000476222F4704211430180704730B405896C
:1035F000B0F818C0048C25F0070529432CF0030C03
:103600002CF4407C40F201154CEA050C24F0220415
:103610004FF6FF7505EA03131A4322430181A0F810
:1036200018C0028430BC7047028B22F07002114334
:1036300001837047028B22F4E0424FF6FF7303EAE6
:103640000121114301837047828B22F070021143E4
:1036500081837047828B22F4E0424FF6FF7303EAC6
:103660000121114381837047002904D0018841F072
:10367000800101807047018821F4F94121F4004163
:1036800001807047002904D0818841F004018180C5
:103690007047818821F0040181807047002904D09F
:1036A000818841F0080181807047818821F00801FC
:1036B00081807047002904D0818841F00101818018
:1036C0007047818821F0010181807047028B22F0D0
:1036D0000802114301837047028B22F400624FF607
:1036E000FF7303EA0121114301837047828B22F0AB
:1036F0000802114381837047828B22F400624FF6E7
:10370000FF7303EA0121114381837047028B22F08A
:103710000402114301837047028B22F480624FF64A
:10372000FF7303EA0121114301837047828B22F06A
:103730000402114381837047828B22F480624FF62A
:10374000FF7303EA0121114381837047028B22F04A
:103750008002114301837047028BC2F30E024FF6C1
:10376000FF7303EA0121114301837047828B22F02A
:103770008002114381837047828BC2F30E024FF6A1
:10378000FF7303EA0121114381837047028C22F009
:103790000202114301847047028C22F00802114397
:1037A00001847047028C22F020024FF6FF7303EA77
:1037B0000111114301847047028C22F080024FF600
:1037C000FF7303EA0111114301847047028C22F454
:1037D00000724FF6FF7303EA012111430184704721
:1037E000028C22F400624FF6FF7303EA01211143B9
:1037F00001847047028C22F400524FF6FF7303EAF3
:103800000131114301847047038C4FF0010C0CFA15
:1038100001FC23EA0C030384038C02FA01F119432F
:1038200001847047038C4FF0040C0CFA01FC23EA6E
:103830000C030384038C02FA01F1194301847047DD
:10384000038C4FF0010C0CFA01FC23EA0C030384F7
:10385000002910D008290ED0091FC1F34E010844D9
:10386000816948F6FF73194081614FF6FF7101EAE3
:1038700002218161704700EB510081694FF68F731F
:103880001940816182617047002904D0018841F0AC
:10389000020101807047018821F0020121F47C417E
:1038A00001807047002904D0018841F004010180A3
:1038B0007047018821F0040121F47C4101807047A8
:1038C000002904D0818841F080018180704781887F
:1038D00021F0800181807047028822F4816222F405
:1038E000784202800288114301807047828822F06A
:1038F000700282808288114381807047028922F0A1
:10390000070202810289114301817047028922F076
:1039100080020281028911430181704781847047CE
:10392000818570478186704701877047818770471E
:10393000A0F8401070470288D2B20280028811437A
:1039400001807047808E7047008F7047808F70476E
:10395000B0F840007047808C7047008D7047024679
:103960000020128A0A4200D001207047C943018218
:1039700070470022038A0B4080890840002B01D049
:1039800000B1012210467047C94301827047000010
:1039900072B6704762B67047EFF3108072B6704728
:1039A00080F310887047B0FA80F0704790FAA0F06A
:1039B000704730BF704720BF70470000A0F1005231
:1039C0000023B2F5801F06D2500100EB810000F108
:1039D000085003607047A0F18040B0F5801FF9D215
:1039E000400100EB810000F1844003607047A0F1CA
:1039F00000520123B2F5801F06D2500100EB810076
:103A000000F1085003607047A0F18040B0F5801FBE
:103A1000F9D2400100EB810000F18440036070475F
:103A200070B5102836D2DFE800F057575757081303
:103A30001E575757575757575729FFF7ADFFE649B6
:103A40000A6822F480320A60BDE87040FFF7A8BF20
:103A5000FFF7A2FFE0490A6822F400320A60BDE8DD
:103A60007040FFF79DBFFFF797FFDB490A6822F41C
:103A700080220A60BDE87040FFF792BFFFF78CFF1D
:103A80004FF0E0210A6922F001020A61BDE87040AE
:103A9000FFF786BF4FF0E0214968491C012606EB7D
:103AA0004111C9B2884217D2A0F11001CA1701EB27
:103AB000D261C1F34715103821F01F01441AFFF7F6
:103AC0006BFF06FA04F1AA0002F1E022C2F88011AD
:103AD000BDE87040FFF764BF70BD70B5102836D2E6
:103AE000DFE800F05757575708131E5757575757D7
:103AF00057575729FFF750FFB7490A6842F48032F9
:103B00000A60BDE87040FFF74BBFFFF745FFB249C1
:103B10000A6842F400320A60BDE87040FFF740BF17
:103B2000FFF73AFFAC490A6842F480220A60BDE818
:103B30007040FFF735BFFFF72FFF4FF0E0210A6914
:103B400042F001020A61BDE87040FFF729BF4FF063
:103B5000E0214968491C012606EB4111C9B288429F
:103B600017D2A0F11001CA1701EBD261C1F34715BA
:103B7000103821F01F01441AFFF70EFF06FA04F176
:103B8000AA0002F1E022C2F80011BDE87040FFF780
:103B900007BF70BD70B505460846FFF707FF040E66
:103BA000102D62D2DFE805F08E8E8E8E0814218EE5
:103BB0008E8E8E2E3B8E4754FFF7EEFE874A11689D
:103BC00021F0FF0121431160BDE87040FFF7E8BE1E
:103BD000FFF7E2FE814A116821F47F4141EA0421A6
:103BE0001160BDE87040FFF7DBBEFFF7D5FE7B4AF2
:103BF000116821F47F0141EA04411160BDE8704081
:103C0000FFF7CEBEFFF7C8FE754A116821F07F416D
:103C100041EA04611160BDE87040FFF7C1BEFFF7E3
:103C2000BBFE704A116821F0FF0121431160BDE81D
:103C30007040FFF7B5BEFFF7AFFE6A4A116821F486
:103C40007F0141EA04411160BDE87040FFF7A8BE62
:103C5000FFF7A2FE634A116821F07F4141EA046147
:103C60001160BDE87040FFF79BBE4FF0E020406858
:103C7000401C012101EB4010C0B2854222D2A5F1C7
:103C80001000C11700EB9170C0F38706A5F1100179
:103C900020F003000D1AFFF77FFEB10001F1E022D2
:103CA000D2F80034E9004FF0FF0C0CFA01FC23EAD3
:103CB0000C0304FA01F11943C2F80014BDE8704086
:103CC000FFF76EBE70BD70B5102859D2DFE800F066
:103CD000080A0D10131D28080808082F3908434E3C
:103CE000414C71E06FF002046EE06FF001046BE094
:103CF0004FF0FF3468E0FFF74FFE01463748006899
:103D0000C4B20846FFF74CFE5EE0FFF745FE0146F1
:103D100032480068C0F307240846FFF741FE53E02D
:103D2000FFF73AFE2D480068C0F307444CE0FFF768
:103D300033FE01462A480068040E0846FFF730FEAD
:103D400042E0FFF729FE014626480068C4B2084653
:103D5000FFF726FE38E0FFF71FFE01462148006806
:103D6000C0F307440846FFF71BFE2DE0FFF714FEE3
:103D700001461C480068040E0846FFF711FE23E0C8
:103D80004FF0E0214968491C012202EB4111C9B200
:103D9000884218D2A0F11001CA1701EB9271C1F349
:103DA0008705103821F00301441AFFF7F5FDA9003B
:103DB00001F1E021D1F80054FFF7F2FDE00025FA0F
:103DC00000F0C4B200E0084C002C03DB2046FFF7F3
:103DD000EDFD040E204670BD24ED00E018ED00E07E
:103DE0001CED00E020ED00E00080FFFF00220B78DA
:103DF000002B08D011F8013B00F8013B521CD2B255
:103E00000B78002BF6D100210170104670472DE988
:103E1000F04105460E461446FE488078002804D03E
:103E2000112020700020BDE8F081287801280AD0F8
:103E3000022808D0032806D0042804D001202070CE
:103E40000020BDE8F08102F077F8074605F10F0188
:103E50003046FFF7CBFF0546384602F071F80020E8
:103E600020702846BDE8F08100210278002A05D0A4
:103E7000401C491CC9B20278002AF9D10846704793
:103E80002DE9F04105460E461446E24880780028A8
:103E900003D012202070BDE8F0812878012809D0D5
:103EA000022807D0032805D0042803D00120207061
:103EB000BDE8F08102F040F807463046FFF7D4FF36
:103EC0000F2806D9384602F03BF80B202070BDE8D9
:103ED000F081314605F10F00FFF788FF384602F008
:103EE0002FF800202070BDE8F08130B490F834C085
:103EF00090F8364090F83550086800280CD000EB58
:103F00000C03DA7AAA43DA7212B9827AA243827275
:103F1000091D08680028F2D130BC7047BD49BE4A6F
:103F20008879105C01F11C031B5CD25C02EBC000C1
:103F30004871704770B501F0FFFF0546B54CA07899
:103F400098B9E07888B9FFF7E9FF61792079814273
:103F50000BD0B24850F82110E162886B401C886396
:103F6000E068401CE06001F0FEFF2846BDE87040BC
:103F700001F0E6BF30B4A74C0022616ACA61086252
:103F80000168002915D0636A01F10B0C93F8342005
:103F900093F8353012F80C502B4302F80C30636A5A
:103FA0008A7A93F836301A438A72001D0168002914
:103FB000E9D1606A90F83410994B90F835C05A5C9A
:103FC00022EA0C025A54002A05D190F83600A17951
:103FD00021EA0000A07130BC70472DE9FF4F81B08D
:103FE0008246DDF838800D4616464FF00009C5F8C8
:103FF0000090504601684FF0010B00290ED009785F
:10400000012907D0032905D088F800B005B00020A9
:10401000BDE8F08F001D01680029F0D17D4881784E
:1040200031B1022088F8000005B00020BDE8F08F13
:104030007848C07830B10D2088F8000005B0002025
:10404000BDE8F08F01F078FF0090002300270020EA
:1040500051460C6884B32278012A1BD0032A0AD067
:10406000009801F06DFFC5F8009088F800B005B029
:104070003846BDE8F08F22894AB1521E228145F8A8
:10408000044B012346F8049B7A1C97B210E040F0E1
:1040900001000DE062684AB146F8042BC4F80490B0
:1040A00045F8044B01237A1C97B201E040F002006E
:1040B000091D0C68002CCED1012B3FD0554940F092
:1040C0008000496A91F83020104381F8300081F86F
:1040D00031900498C8855046FFF74CFF009801F0D6
:1040E0002FFFFFF727FF01F027FF00904948406AA4
:1040F00090F8311069B302292BD05146FFF7F5FE35
:10410000444A516A91F8310088B302284AD0C6F86F
:1041100000900A2088F80000506A80F8309080F8FB
:104120003190C0F81C90C0F82090C0F824900098FE
:1041300001F006FF05B03846BDE8F08FC5F80090E5
:10414000009801F0FDFE88F8009005B03846BDE803
:10415000F08FC4692CB12C6045F8049F781C87B29D
:10416000CEE780F831B05146FFF7BFFEC8E7FFE762
:104170002078012811D002280FD003280AD00098F7
:1041800001F0DEFEC5F8009088F800B005B03846B2
:10419000BDE8F08FC6F8009001E0486A306088F80A
:1041A0000090B9E7C6F800900E2088F80000B3E749
:1041B00030B583B00024194D6946204601F038FD22
:1041C00058B955F8241041B1012906D0CA68886849
:1041D00000EB8200486401988864601CC4B21F2C04
:1041E000EAD903B030BD0B4C6078002805D1C82057
:1041F00001F0D8FD60780028F9D00A496069A1FB78
:10420000001040096061002518B92570FF2001F0F9
:1042100052FD09E0440000203E830008800F00208A
:10422000600000201F85EB5101F086FE216AA1612C
:10423000256201F085FE6169A069B0FBF1F0C0F173
:104240006400207001F0D2FEFFF7B2FF642001F09D
:10425000A9FDDEE700B587B0032100228023049189
:10426000FD4802934FF6FE7103921E2300910190C8
:1042700000F5FE720021AFF2910001F0ECFA06AAFF
:10428000F6A11E2001F048FC07B000BDF74C01F07C
:1042900053FE216A491C216201F052FE01F0A4FE86
:1042A000F5E700B587B00321002280230491F04890
:1042B00002934FF6FF7103921F230091019000F5C6
:1042C000FE720021AFF23B0001F0C5FA06AAE9A197
:1042D0001F2001F021FC07B000BD002906D00022FC
:1042E00000F8012B491E89B20029F9D1704710B599
:1042F0004FF4A071E348FFF7F0FFE248044604F1F1
:104300002002002100234FF03F0C0370426080F830
:104310000FC0037420302032491C89B20929F4D31C
:104320000370436080F80FC00374D048046110BD6F
:1043300010B54FF4FD61D448FFF7CFFF8021D3487B
:10434000FFF7CBFFD048044604F15C0200210023B4
:104350004FF03F0C426180F84CC080F84D305C302B
:104360005C32491CC9B21529F4D3436180F84CC0B2
:1043700080F84D30BD480363846210BDBB4B002202
:104380009A7103F11C01002001F8012B401CC0B2FE
:104390000428F9D31A715A71DA625A627047B34825
:1043A000002141638170C1700172C171C1600162FD
:1043B000816141614170704710B501F00FFEFFF758
:1043C000EEFFFFF7DBFFFFF7B3FFFFF790FF00F013
:1043D000BCFDFFF766FFFFF73DFF01F000FEBDE803
:1043E000104001F069BEA149C879012804D188783C
:1043F000FF2801D2401C8870704770B59B4CE07953
:10440000012821D101F098FD0546A17809B1481E87
:10441000A070A07898B9E07888B9FFF77FFD61793E
:10442000207981420BD0994850F82110E162886BC5
:10443000401C8863E068401CE06001F099FD28465C
:10444000BDE8704001F07CBD70BD10B5874CE079CF
:1044500001280CD101F070FDA17821B9E178FF2984
:1044600001D2491CE170BDE8104001F069BD10BDEA
:1044700010B57E4CE07901281AD101F05DFDE1789C
:1044800091B1491EC9B2E17019B1BDE8104001F007
:1044900057BDA17819B1BDE8104001F051BD01F040
:1044A0004FFDBDE8104045E5BDE8104001F048BDB6
:1044B00010BD10B56D4CE07900280CD1FFF72EFD32
:1044C00060792071714951F82000E0626062BDE8B6
:1044D000104001F038BD10BD10B5022001F062FCA3
:1044E00001F02AFD614C0021216201F029FD6420C8
:1044F00001F058FC01F020FD216A61610121617029
:10450000BDE8104001F01CBD2DE9F04101F0ADFD0A
:1045100001F012FD554D696B491C696301F010FDF6
:10452000E87901284BD1687A01260027C0B101281B
:1045300018D0022818D001206F7200283FD02C6BB1
:1045400094F832001F283AD0DFF8448101F0F4FCDF
:10455000E18D69B3491E0904090CE18507D027E004
:104560000120EAE70020E8E701206E72E5E794F811
:10457000301011F0370F06D021F0370184F83010D9
:1045800084F8316001E084F8317094F8301011F053
:10459000080F0DD194F83610AA791143A97194F837
:1045A000341094F8353018F801201A4308F8012027
:1045B000646901F0C5FC94F832001F28C6D1BDE83B
:1045C000F0814FF48F707047704790F8342090F866
:1045D00035C08B18DA7A22EA0C02DA72002A05D189
:1045E0008A7A90F8360022EA00008872704770B527
:1045F00005468C46A87A2749085C2C18E47A095DA0
:1046000001EBC001CEB2214951F826400021E185DD
:10461000C4F824C094F83010914384F8301084F822
:10462000313011F0080F0BD1104994F836208B79F6
:104630001A438A711C3194F835300A5C1A430A54C3
:1046400029462046FFF7C1FF216A19B12046FFF72E
:104650004CFCE561304670BD800B002075432F4F48
:10466000532D494920537461740000004400002018
:10467000800D002075432F4F532D49492049646C0C
:1046800065000000400A002000100020800F00207C
:10469000600000203E83000810B4DFF87CC1DCF825
:1046A0002410C86191F8342000F10B0391F8351003
:1046B000D45C2143D154DCF82410827A91F836304E
:1046C0001A43827291F834000CF11C0391F83540C2
:1046D0001A5CA2431A54002A07D191F836009CF8BC
:1046E000061021EA00008CF8060010BC704700227A
:1046F00082720B30002100F8012B491CC9B2042939
:10470000F9D37047002A07D011F8013B00F8013BAC
:10471000521E92B2002AF7D170472DE9FF5F06467C
:104720000D469346DDF84090DDF83C800E9F01F089
:1047300003FCDFF8E4A0DAF82840002C66D06169B9
:10474000CAF8281001F0FCFB256084F832600025CF
:1047500084F8305084F83150E585C4F80480E7606F
:10476000C4F808B0A4F810900398608284F8375019
:10477000F00884F8340006F0070184F833100122B1
:1047800002FA00F084F8360002FA01F084F83500ED
:10479000E5612562A5626562A5632564E5636564DC
:1047A000A5643F2084F84C0084F84D50204601F069
:1047B0005AFC204601F014FC01F0BEFB02461748EB
:1047C00040F82640DAF830006061A56100B18461EC
:1047D000CAF8304094F836009AF8061008438AF870
:1047E000060094F834000E4994F835C00B5C43EA97
:1047F0000C030B549AF80800401C8AF80800104675
:1048000001F09EFB04B00020BDE8F09F01F098FB92
:1048100004B04220BDE8F09F44000020800F00203B
:10482000600000202DE9F04105460F4614461E4663
:104830002878052804D0012030700020BDE8F081E0
:1048400004F0800020B124F080044FF0010801E062
:104850004FF000080020307001F06EFB024670211E
:104860006CB3012C3BD0022C0AD0032C18D010467C
:1048700001F066FB00246F2030702046BDE8F08117
:10488000288900EA0704BC4205D1B8F1010F03D121
:10489000A043288100E03170104601F051FBECE7A5
:1048A000288900EA07042CB1B8F1010F03D1A04315
:1048B000288100E03170104601F042FBDDE72889D5
:1048C00027EA0004BC4205D1B8F1010F03D120430F
:1048D000288100E03170104601F032FBCDE72889D5
:1048E00027EA00042CB1B8F1010F03D1204328813D
:1048F00000E03170104601F023FBBEE770B50646BC
:104900000D46FE480078002803D0102028700020B3
:1049100070BD01F011FB0146F948046874B162688A
:104920000260052020702681002666603F20A0726C
:10493000E672084601F004FB2E7004E0084601F020
:10494000FFFA72202870204670BD4268016800237B
:10495000002A05D0116001B14A6080688362704707
:10496000C26851600029F8D04B60F6E710B50346E5
:1049700098680022C285818590F8301021F02001CE
:1049800080F8301080F83120002905D00024184626
:10499000FFF7DBFF204610BDDA4990F8362091F88A
:1049A00000C042EA0C020A7090F83410D64A90F81F
:1049B000350012F801C04CEA000050540124E6E72B
:1049C0002DE9F05F044688461646CC48007800285A
:1049D00004D00F2030702046BDE8F09F20780528D5
:1049E00004D0012030702046BDE8F09F01F0A4FA09
:1049F000834665680DB1012700E000275FEA0801E2
:104A0000DFF8FC924FF03F0A4FF0000809D001296F
:104A100025D0584601F094FA072030702046BDE8B2
:104A2000F09F3FB1584601F08BFA49203070204684
:104A3000BDE8F09F84F80AA084F80B8084F8008019
:104A4000D9F800006060A4F80880C9F80040584612
:104A500001F076FA86F800800020BDE8F09F35B1BD
:104A600000212846FFF782FF2D68002DF8D184F839
:104A70000AA084F80B8084F80080D9F800006060F8
:104A8000A4F80880C9F80040584601F059FA012FEF
:104A900001D1FFF74FFA86F800800020BDE8F09FB3
:104AA0002DE9F04105460E4614469448007800284A
:104AB00004D0112020700020BDE8F08101F03CFA04
:104AC00007462878052807D0384601F039FA012032
:104AD00020700020BDE8F08105F10A013046FFF7A3
:104AE00085F90546384601F02BFA0020207028464B
:104AF000BDE8F0812DE9F04105460E4614467F4899
:104B00000078002803D012202070BDE8F08101F069
:104B100013FA07462878052806D0384601F010FA1F
:104B200001202070BDE8F0813046FFF79DF90F2885
:104B300006D9384601F004FA73202070BDE8F081F0
:104B4000314605F10A00FFF751F9384601F0F8F94E
:104B500000202070BDE8F08170B4039C6B4DD5F847
:104B600000C09CF8306046F020068CF830600026CB
:104B70008CF83160ACF82E40CCF828100A828B7487
:104B8000C1F808C042680A604E60C8604268002AE6
:104B900000D051604160286890F834105A4B90F86A
:104BA00035C05A5C22EA0C025A54002A06D190F809
:104BB00036105448027822EA0101017070BC704737
:104BC0002DE9F04F87B00446109D0F4690469A4657
:104BD0004A480078002805D00220287007B000203D
:104BE000BDE8F08F4A48007828B10D20287007B042
:104BF0000020BDE8F08F2078052805D0012028701E
:104C000007B00020BDE8F08F08F0800018B128F050
:104C10008008012600E0002601F08EF901904FF097
:104C20000009B8F1000F58D0B8F1010F65D0B8F104
:104C3000020F0BD0B8F1030F2BD0019801F080F9CF
:104C400000206F21297007B0BDE8F08F208900EAAD
:104C5000070BBB4511D1012E02D120EA0B002081A8
:104C60002A480068A0F82CB0019801F069F985F88D
:104C7000009007B05846BDE8F08F43463A4602A977
:104C80002046CDF800A0FFF767FF019801F058F922
:104C900077E0208900EA070BBBF1000F11D0012E4D
:104CA00002D120EA0B00208118480068A0F82CB03F
:104CB000019801F045F985F8009007B05846BDE825
:104CC000F08F43463A4602A92046CDF800A0FFF7F0
:104CD00043FF019801F034F953E0208927EA000BE3
:104CE000BB451FD1012E02D140EA0B0020810748AD
:104CF0000068A0F82CB001980CE01FE046000020EE
:104D00007C0000204A000020600000206800002095
:104D10004700002001F014F985F8009007B05846CC
:104D2000BDE8F08F43463A4602A92046CDF800A0E0
:104D3000FFF712FF019801F003F922E0208927EA2A
:104D4000000BBBF1000F11D0012E02D140EA0B0085
:104D500020818E480068A0F82CB0019801F0F0F88E
:104D600085F8009007B05846BDE8F08F43463A46B4
:104D700002A92046CDF800A0FFF7EEFE019801F051
:104D8000DFF8FFF7D7F801F0D7F88246DFF8FCB17B
:104D9000DBF8000090F83170C7B180F8319002A8BC
:104DA000FFF7D3FDDBF8000080F83090504601F0AB
:104DB000C7F80020022F04D00A21297007B0BDE8EF
:104DC000F08F0E21297007B0BDE8F08F878D012E7E
:104DD0001BD1B8F1000F15D0B8F1010F12D0B8F106
:104DE000020F0BD0B8F1030F08D0504601F0A8F81D
:104DF0006F20287007B00020BDE8F08F2089B843ED
:104E0000208102E0208938432081504601F098F843
:104E100085F8009007B03846BDE8F08F10B501F076
:104E20008BF85A4909688C8D01F08AF8204610BD2C
:104E30002DE9F04105460E4614461F462878052800
:104E400004D0012038700020BDE8F08101F074F832
:104E500080464CB1012C0BD0404601F071F8712016
:104E600038700020BDE8F0812889B043288102E035
:104E700028893043288100266C68002C41D0A07C12
:104E800020B301282FD0022809D0032813D0404690
:104E900001F056F86F2038700020BDE8F0812989B4
:104EA000208A0140884229D12046FFF75FFD012872
:104EB00024D1012622E02889218A0140F1B120462F
:104EC000FFF754FD012819D1012617E0208A29890E
:104ED00020EA0101884211D12046FFF747FD012851
:104EE0000CD101260AE0208A298920EA010129B192
:104EF0002046FFF73BFD012800D101262468002C45
:104F0000BDD1404601F01CF8012E01D1FFF712F887
:104F100001F012F82C8901F013F8002038702046B7
:104F2000BDE8F08170B505460C462878052803D009
:104F300001202070002070BD00F0FEFF2D8900F0E0
:104F4000FFFF00202070284670BD10B58C2110484E
:104F5000FFF7C3F90E48044604F11C0200210023A8
:104F60004FF03F0C0370426080F80AC0C3721C30DF
:104F70001C32491C89B20429F4D30370436080F8C1
:104F80000AC0C3720348046010BD0000680000201E
:104F9000E81700207C00002070B504462078012826
:104FA00001D0002070BD00F0C7FF6568002161607E
:104FB00000F0C6FF284670BD70B50546D44800789D
:104FC000002801D0002070BD00F0B6FF0146D14896
:104FD00004680CB162680260084600F0B1FF54B189
:104FE000012020700020208165603F21E173207442
:104FF0002046FFF77CFB204670BD2DE9F05F04469C
:105000008B4615462078012804D0012028702046C0
:10501000BDE8F09FBE48007820B10F2028702046E0
:10502000BDE8F09F00F088FF8246A07A08B1012613
:1050300000E00026DFF8DC8200274FF03F09BBF1DB
:10504000000F0AD0BBF1010F21D0504600F078FFCD
:10505000072028702046BDE8F09F3EB1504600F082
:105060006FFF492028702046BDE8F09F84F80F901C
:1050700027742770D8F8000060602781C8F80040C6
:10508000504600F05DFF2F700020BDE8F09F40B15A
:105090000023022219462046FFF7A9FAA07A002829
:1050A000F6D184F80F9027742770D8F8000060605C
:1050B0002781C8F80040504600F042FF012E01D180
:1050C000FEF738FF2F700020BDE8F09F2DE9F04774
:1050D0000546894614462878012804D0012020700E
:1050E0000020BDE8F0878A48007820B102202070B7
:1050F0000020BDE8F0878848007820B10D2020709E
:105100000020BDE8F08700F017FF82466E68002798
:105110003EB16F60504600F013FF27703046BDE887
:10512000F087DFF8F881D8F8000090F8301041F0EF
:10513000020180F8301080F83170A0F82E902846D7
:10514000FFF7AAFA504600F0FBFEFEF7F3FE00F070
:10515000F3FE8146D8F8000090F83110A9B1022979
:1051600016D02946FFF731FA0A202070D8F800003F
:1051700080F8307080F83170C76107624762484636
:1051800000F0DEFE3046BDE8F087466A2770EDE7A6
:105190000E202070EAE72DE9F041054688461646C4
:1051A00029780120012903D030700020BDE8F0816A
:1051B00000F0C2FE0746A87A00B30024B8F1010F40
:1051C00010D002231A4600212846FFF710FA0124C6
:1051D000384600F0B5FEFEF7ADFE0E2030702046DA
:1051E000BDE8F08102231A4600212846FFF7FFF9A7
:1051F000601CC4B2A87A0028F4D1E9E7384600F070
:105200009FFE00203070BDE8F08170B504460D4669
:105210002078012801D0012070BD00F08DFE0646E7
:10522000A07A60B10023022229462046FFF7DFF969
:10523000304600F085FEFEF77DFE002070BD606800
:1052400020B1304600F07CFE142070BD6560304611
:1052500000F076FE002070BD2DE9F04104460E46B8
:1052600015462078012802D00120BDE8F08100F029
:1052700063FE0746A07AE8B115F0010F09D00023BC
:10528000022231462046FFF7B2F9A07A0028F6D173
:1052900005E00023022231462046FFF7A8F93846F0
:1052A00000F04EFE15F0040F01D1FEF743FE002082
:1052B000BDE8F081606828B1384600F041FE142056
:1052C000BDE8F0816660384600F03AFE0020BDE897
:1052D000F08170B504460D462078012801D00120E8
:1052E00070BD00F029FEA17A297204F10B0305F1CB
:1052F000040C002213F8011B0CF8011B511CCAB24C
:10530000042AF7D36168296000F01AFE002070BDFE
:1053100046000020540000204700002068000020C4
:1053200070B504462078032801D0002070BD00F03D
:1053300003FE25890DB1691E218100F001FE28467A
:1053400070BD70B50546C2480078002801D0002025
:1053500070BD00F0F1FD0146BE4804680CB1626802
:105360000260084600F0ECFD54B103202070258156
:10537000002060603F21E17320742046FFF7B7F9F9
:10538000204670BD2DE9F05F04468B461546207817
:10539000032804D0012028702046BDE8F09FAC48C7
:1053A000007820B10F2028702046BDE8F09F00F063
:1053B000C3FD8246A07A08B1012600E00026DFF88E
:1053C000948200274FF03F09BBF1000F0AD0BBF1D8
:1053D000010F21D0504600F0B3FD07202870204671
:1053E000BDE8F09F3EB1504600F0AAFD492028706C
:1053F0002046BDE8F09F84F80F9027742770D8F8F6
:10540000000060602781C8F80040504600F098FD19
:105410002F700020BDE8F09F40B100230122194603
:105420002046FFF7E4F8A07A0028F6D184F80F9020
:1054300027742770D8F8000060602781C8F8004002
:10544000504600F07DFD012E01D1FEF773FD2F7057
:105450000020BDE8F09F2DE9F04705468846144638
:105460002878032803D001202070BDE8F087784811
:10547000007818B102202070BDE8F08776480078E7
:1054800018B10D202070BDE8F08700F055FD814671
:105490002889002638B1401E2881484600F050FD7A
:1054A0002670BDE8F0876D4F3A6892F8300040F002
:1054B000010082F8300082F83160A2F82E80284680
:1054C000FFF7EAF8484600F03BFDFEF733FD00F039
:1054D00033FD8046386890F8311091B1022912D01E
:1054E0002946FFF772F80A202070386880F830608B
:1054F00080F83160C66106624046BDE8F04700F0C2
:105500001FBD2670F1E70E202070EEE72DE9F04177
:1055100005468846164629780120032903D03070B5
:105520000020BDE8F08100F007FD0746A87A00B32F
:105530000024B8F1010F10D00223012200212846D7
:10554000FFF755F80124384600F0FAFCFEF7F2FCAC
:105550000E2030702046BDE8F08102230122002198
:105560002846FFF744F8601CC4B2A87A0028F4D19A
:10557000E9E7384600F0E4FC00203070BDE8F08137
:1055800070B504462078032801D0012070BD00F0DA
:10559000D3FC0546A07A60B10023012219462046BB
:1055A000FFF725F8284600F0CBFCFEF7C3FC0020EF
:1055B00070BD20894FF6FF71884206D2401C2081C1
:1055C000284600F0BDFC002070BD284600F0B8FC65
:1055D000322070BD70B504460D462078032801D0F6
:1055E000012070BD00F0A8FCA17AA97104F10B02A2
:1055F000AB1C4FF0000C12F8011B03F8011B0CF15F
:10560000010101F0FF0CBCF1040FF4D321892980C2
:1056100000F096FC002070BD70B504460E4615469D
:105620002078032802D00120287070BD00F084FC8F
:1056300000212970218909B1268103E0A17A29B1CD
:1056400049212970BDE8704000F07ABC2681F9E755
:105650004600002054000020470000206800002081
:105660002DE9F05F04460F4600F066FCF84A52F858
:10567000271021B100F064FC2820BDE8F09FFF2C2A
:1056800003D1F449096891F8324052F824301BB331
:10569000012B26D04FEAD70C07F0070B012101FAA6
:1056A0000CF5EEB201FA0BF1C9B2002542F8245014
:1056B00042F8273093F8345093F836A093F83580A9
:1056C000E54C625D12EA080F20D022EA080262551A
:1056D000DFF8889352B10FE000F032FC2920BDE8DA
:1056E000F09F00F02DFC4320BDE8F09F99F80020CA
:1056F00022EA0A0289F8002099F80020324389F84A
:10570000002014F80C200A4304F80C20DA69A2B136
:10571000541994F80B9029EA080984F80B90B9F110
:10572000000F03D1947A24EA0A049472947A3443E1
:1057300094726244D47A0C43D4721C6A1CB32268FB
:105740000AB302EB050999F80BE02EEA080E89F876
:105750000BE0BEF1000F05D192F80A9029EA0A0980
:1057600082F80A9092F80A9049EA060982F80A90AB
:10577000624492F80B9049EA010982F80B90241DCB
:105780002268002ADDD183F8327083F834C083F8B0
:1057900033B083F8366083F8351000F0D1FBB048A1
:1057A0000078012801D1FEF7C5FB0020BDE8F09F7D
:1057B0002DE9F04184B005460E4690461C4600F0A7
:1057C000BBFBA849097829B100F0BAFB04B03C2022
:1057D000BDE8F0819E4F57F8241029B100F0B0FBCE
:1057E00004B02820BDE8F081012147F8241000F022
:1057F000A7FB002342463146284600F0F9FB00266D
:105800000146009601963346324620460296FEF740
:1058100084FF05464DB100F08FFB47F8246000F08F
:105820008FFB04B02846BDE8F0818D480078012840
:10583000F7D1FEF77FFBF4E712F0010F0AD012F068
:10584000020F07D0002905D00022491E40F8042B82
:105850000029FAD170472DE9FF4F83B083461C46DB
:10586000DDF840A0DDF84490139F129E149D00F0D7
:1058700063FB7C49097829B100F062FB07B03C204A
:10588000BDE8F08FDFF8C88158F8241029B100F086
:1058900057FB07B02820BDE8F08F012148F82410FD
:1058A00000F04EFB2A4631464846FFF7C5FF2B461F
:1058B0005846059A049900F09BFB014653464A4618
:1058C0002046019700960295FEF727FF054655B141
:1058D00000F032FB002148F8241000F031FB07B043
:1058E0002846BDE8F08F5E4800780128F7D1FEF722
:1058F00021FBF4E72DE9F04705465A4800780028D7
:1059000002D04020BDE8F0871F2D05D000F014FB29
:105910000746FF2D03D006E03E20BDE8F0874D4846
:10592000006890F832504A4E56F825405CB1012C80
:105930000FD094F83400484A94F83530115C9943FC
:10594000115461B112E0384600F0FAFA4320BDE884
:10595000F087384600F0F4FA3D20BDE8F0873F4874
:1059600094F83610027822EA01010170E16911B160
:105970002046FEF72AFE216A11B12046FEF7B5FA4D
:10598000A06A08B1FEF7E1FF4FF00008A4F82E80EE
:1059900084F8308084F83180DFF8CC9099F80000EA
:1059A000FF2802D2401C89F80000384600F0C8FAEF
:1059B000FEF70AFE00F0C0FA074699F8000010B1A1
:1059C000401E89F80000204600F00CFB27480178B3
:1059D000491E017046F82580A069A8B1616941613E
:1059E0006169A069886122480168616104603F20A3
:1059F00084F84C0084F84D80384600F0A1FA18482D
:105A00000078012807D008E06069C0F818801949BB
:105A100060690860E7E7FEF78DFA0020BDE8F087CF
:105A200010B504461F2C27D0FF2C27D000F084FA95
:105A30000146074850F8240050B301282DD03F22DA
:105A400080F83720084600F07BFA002010BD0000E7
:105A5000800F002068000020600000204A00002025
:105A60004B00002046000020470000204C00002092
:105A70006C000020740000203E20E7E700F05CFA94
:105A8000C249096891F8374000F05AFA2046DDE72C
:105A9000084600F055FA4320D8E7084600F050FACF
:105AA0003D20D3E72DE9F04105460E461446B8489F
:105AB0000078002804D0112020700020BDE8F0817B
:105AC00000F03AFA0746FF2D03D1B048006890F87D
:105AD0003250B04850F82500432578B1012814D041
